:040000000CEF00F011
:10000800FACF01F0FBCF02F0E9CF03F049ED04F09D
:10001800000E216E000E1F6E000E246E000E236E61
:10002800E5EC05F0F0EC05F0D7EC05F02AEC05F06E
:10003800000E2C6E000E2B6E000E2F6E080E116E29
:100048007B0E106E000E136E050E126E93EC04F00C
:10005800010EA2EC05F09494010E8DEC05F094923B
:1000680036EF00F081A002D0838001D0839081A276
:1000780002D0838201D0839281A402D0838401D0EC
:10008800839481A602D0838601D0839683B84FEFEC
:1000980000F051EF00F076EF00F0206656EF00F028
:1000A80058EF00F07AEF00F0010E206E234A242A60
:1000B80023C01DF024C01EF01D1E1E1E1D4A1E2A30
:1000C8002C0E1D240F6E010E1E20106E76EC05F00E
:1000D80023C00FF024C010F05FEC05F07AEF00F0B9
:1000E8007AEF00F0000E206E7AEF00F083BA7FEF0F
:1000F80000F081EF00F0A8EF01F0216686EF00F034
:1001080088EF00F0ACEF01F0010E216E080E116EC1
:10011800130E106E000E136E0D0E126E93EC04F09B
:10012800050EC3EC04F012341232113212341232BA
:1001380011321150C8EC05F00A0EC8EC05F0080E93
:10014800116E210E106E000E136E0D0E126E93ECD2
:1001580004F02350C8EC05F00A0EC8EC05F0080EB0
:10016800116E010E106E000E136E110E126E93ECCE
:1001780004F0E1EF00F00001600E2B24D96E0001BD
:10018800000E2C20DA6EDF50C8EC05F02B4A2C2A22
:100198002C50800A800F800ED8B42B5CD8A0D7EFE3
:1001A80000F0D9EF00F0E1EF00F0000E2C6E000E29
:1001B8002B6EE1EF00F0E1EF00F02F501D6E1E6A8C
:1001C8002C501E1802E12B501D18D8A4EEEF00F099
:1001D800F0EF00F0BFEF00F0F2EF00F00A0EC8EC0D
:1001E80005F08150C8EC05F00A0EC8EC05F0815006
:1001F8000F0B226E7DEF01F0080E116E530E106E7C
:10020800000E136E0A0E126E93EC04F0ACEF01F0C0
:10021800080E116E810E106E000E136E050E126E12
:1002280093EC04F0ACEF01F0080E116E3C0E106E6A
:10023800000E136E0B0E126E93EC04F0ACEF01F08F
:10024800080E116E720E106E000E136E080E126EEE
:1002580093EC04F0ACEF01F0080E116E480E106E2E
:10026800000E136E0A0E126E93EC04F0ACEF01F060
:10027800080E116E8C0E106E000E136E040E126EA8
:1002880093EC04F0ACEF01F0080E116E680E106EDE
:10029800000E136E090E126E93EC04F0ACEF01F031
:1002A800080E116E2F0E106E000E136E0C0E126ECD
:1002B80093EC04F0ACEF01F0080E116E5E0E106EB8
:1002C800000E136E090E126E93EC04F0ACEF01F001
:1002D800080E116E870E106E000E136E040E126E4D
:1002E80093EC04F02250C8EC05F0ACEF01F0ACEF51
:1002F80001F02250000AD8B460EF01F0010AD8B426
:1003080048EF01F0030AD8B430EF01F0010AD8B47D
:100318003CEF01F0070AD8B418EF01F0020AD8B48C
:1003280024EF01F00E0AD8B400EF01F0040AD8B4A3
:100338000CEF01F0030AD8B454EF01F06CEF01F0B0
:10034800ACEF01F0ACEF01F0000E216EACEF01F064
:1003580083B8B1EF01F0B3EF01F036EF00F0050E0E
:10036800C3EC04F012341232113212341232113248
:100378001150C8EC05F036EF00F036EF00F036EF1C
:0603880000F00CEF00F094
:1008000000554152542068617320726563656976B2
:100810006564004144432076616C756520697320EE
:100820000050574D2076616C756520697320004932
:100830006E74657273656374696F6E004E7564677C
:1008400065207269676874004E75646765206C6521
:1008500066740048617264207269676874004C6F46
:100860007374206C696E650048617264206C656603
:10087000740053747261696768740048656C6C6FCA
:10088000005269676874006E6F6E65004C6566742F
:1008900000000600EACF04F0E1CF05F0E2CF06F059
:1008A000D9CF07F0DACF08F0F3CF09F0F4CF0AF090
:1008B000F6CF0BF0F7CF0CF0F8CF0DF0F5CF0EF030
:1008C0009EAA65EF04F067EF04F06BEF04F00EEC06
:1008D00005F06BEF04F09EA270EF04F072EF04F0ED
:1008E00076EF04F0EFEC04F076EF04F00EC0F5FFC5
:1008F0000DC0F8FF0CC0F7FF0BC0F6FF0AC0F4FFF5
:1009000009C0F3FF08C0DAFF07C0D9FF06C0E2FF45
:1009100005C0E1FF04C0EAFF03C0E9FF02C0FBFF1E
:1009200001C0FAFF1100000E176E000E166E000EC9
:10093000176E000E166EB1EF04F010C014F011C067
:1009400015F0165014261750152214C0F6FF15C0C6
:10095000F7FF0800F550C8EC05F0164A172AB1EF6A
:1009600004F01750800A146E1250165C1350800A5F
:100970001458D8A0BEEF04F0C0EF04F09DEF04F0CF
:10098000C2EF04F01200156E15C013F0070E131617
:1009900013461346C2501318C30B1318C26E000E31
:1009A000106E000E0F6E45EC05F0C282D8EF04F019
:1009B000C2B2DDEF04F0DFEF04F0D8EF04F0E1EFB6
:1009C00004F0C350C4CF13F0146A13C014F0136AB8
:1009D0001310116E1450126EEEEF04F01200010E9F
:1009E0002524256E000E2620266E000E2720276E59
:1009F000000E2820286E2A502910D8B402EF05F0E6
:100A000004EF05F00CEF05F0FF0E2924296EFF0E10
:100A10002A202A6E0CEF05F09E9212002F50010D35
:100A20000001600EF324D96E0001000EF420DA6E8E
:100A3000AECFDFFF2F2A2F50800AD8A422EF05F077
:100A400024EF05F028EF05F0000E2F6E28EF05F0DB
:100A50009E9A1200C294C296C298C29AC19AC19834
:100A6000C150F00B0A09C16EC08EC050C70B2809D7
:100A7000C06EC050F80B0609C06E92502F09926EDE
:100A800096500109966EC28012000FC029F010C066
:100A90002AF04DEF05F04DEF05F02A50800AF36E75
:100AA000800EF35C010ED8B4295CD8B05AEF05F083
:100AB0005CEF05F04DEF05F05EEF05F012000FC0A2
:100AC00011F0030E1116113ABA501118CF0B11186C
:100AD000BA6E0FC011F010C012F01234123211327F
:100AE0001234123211321150BB6E12000FC011F0CD
:100AF000030E1116113ABD501118CF0B1118BD6E0F
:100B00000FC011F010C012F0123412321132123430
:100B1000123211321150BE6E12000F6E0F6693EF3B
:100B200005F095EF05F09BEF05F0BA90BA92BA94F4
:100B3000BA96A1EF05F0BA50F00B0C09BA6EA1EF0E
:100B400005F012000F6E0F66A8EF05F0AAEF05F092
:100B5000B0EF05F0BD90BD92BD94BD96B6EF05F027
:100B6000BD50F00B0C09BD6EB6EF05F0120000EEA3
:100B700060F0800EEE6AE806FDE100EE25F00B0E57
:100B8000EE6AE806FDE1000EF86E00010AEF00F0E3
:100B90000F6E0FC0ADFFCDEF05F0ACA2D2EF05F0A8
:100BA000D4EF05F0CDEF05F0D6EF05F01200080EFA
:100BB000AC6E900EAB6EF28EF28CD08E9E9A9D8AA9
:100BC000B886190EAF6EAC8A12009550F00B956E78
:100BD0008350F00B836E9550F009956E9368120068
:100BE0004F0ECA6E4B0ECB6EF28EF28C9E929D8291
:040BF0009F821200CE
:020000040030CA
:0E0000002002391EFF8581FF0FC00FE00F4068
:00000001FF
