:040000000CEF00F011
:10000800FACF01F0FBCF02F0E9CF03F01BED04F0CB
:10001800000E216E000E1F6E000E236E000E226E63
:10002800C3EC05F0B9EC05F0ABEC05F0FCEC04F022
:10003800000E2B6E000E2A6E000E2E6E080E116E2C
:100048002F0E106E000E136E050E126E65EC04F086
:10005800010E74EC05F09494010E5FEC05F0949297
:1000680036EF00F083B83BEF00F03DEF00F06BEFA8
:1000780000F0206642EF00F044EF00F06FEF00F070
:10008800010E206E1F2A224A232A22C01DF023C0F7
:100098001EF01D1E1E1E1D4A1E2A2C0E1D240F6E2C
:1000A800010E1E20106E48EC05F022C00FF023C090
:1000B80010F031EC05F01FC01DF00F0E1D16835017
:1000C800F00B1D10836E6FEF00F06FEF00F0000E65
:1000D800206E6FEF00F083BA74EF00F076EF00F057
:1000E800EEEF00F021667BEF00F07DEF00F0F2EF1D
:1000F80000F0010E216E080E116E130E106E000E28
:10010800136E0D0E126E65EC04F0050E95EC04F0FE
:1001180012341232113212341232113211509CEC54
:1001280005F00A0E9CEC05F0080E116E210E106EFB
:10013800000E136E0D0E126E65EC04F022509CEC4E
:1001480005F00A0E9CEC05F0080E116E010E106EFB
:10015800000E136E110E126E65EC04F0D6EF00F06F
:100168000001600E2A24D96E0001000E2B20DA6EE1
:10017800DF509CEC05F02A4A2B2A2B50800A800F6E
:10018800800ED8B42A5CD8A0CCEF00F0CEEF00F0F7
:10019800D6EF00F0000E2B6E000E2A6ED6EF00F0A0
:1001A800D6EF00F02E501D6E1E6A2B501E1802E16D
:1001B8002A501D18D8A4E3EF00F0E5EF00F0B4EFE3
:1001C80000F0E7EF00F00A0E9CEC05F0F2EF00F00B
:1001D800F2EF00F0000E216EF2EF00F083B8F7EFB7
:1001E80000F0F9EF00F036EF00F0050E95EC04F0A2
:1001F80012341232113212341232113211509CEC74
:1002080005F036EF00F036EF00F036EF00F00CEFB7
:0202180000F0F4
:1008000000554152542068617320726563656976B2
:100810006564004144432076616C756520697320EE
:100820000050574D2076616C756520697320004833
:10083000656C6C6F00000600EACF04F0E1CF05F0B4
:10084000E2CF06F0D9CF07F0DACF08F0F3CF09F006
:10085000F4CF0AF0F6CF0BF0F7CF0CF0F8CF0DF095
:10086000F5CF0EF09EAA37EF04F039EF04F03DEF1C
:1008700004F0E0EC04F03DEF04F09EA242EF04F03F
:1008800044EF04F048EF04F0C1EC04F048EF04F04A
:100890000EC0F5FF0DC0F8FF0CC0F7FF0BC0F6FF50
:1008A0000AC0F4FF09C0F3FF08C0DAFF07C0D9FF90
:1008B00006C0E2FF05C0E1FF04C0EAFF03C0E9FF94
:1008C00002C0FBFF01C0FAFF1100000E176E000E00
:1008D000166E000E176E000E166E83EF04F010C039
:1008E00014F011C015F0165014261750152214C01C
:1008F000F6FF15C0F7FF0800F5509CEC05F0164A0E
:10090000172A83EF04F01750800A146E1250165CF9
:100910001350800A1458D8A090EF04F092EF04F01E
:100920006FEF04F094EF04F01200156E15C013F091
:10093000070E131613461346C2501318C30B131891
:10094000C26E000E106E000E0F6E17EC05F0C28224
:10095000AAEF04F0C2B2AFEF04F0B1EF04F0AAEFD7
:1009600004F0B3EF04F0C350C4CF13F0146A13C003
:1009700014F0136A1310116E1450126EC0EF04F0CD
:100980001200010E2424246E000E2520256E000E78
:100990002620266E000E2720276E29502810D8B456
:1009A000D4EF04F0D6EF04F0DEEF04F0FF0E2824BD
:1009B000286EFF0E2920296EDEEF04F09E921200B1
:1009C0002E50010D0001600EF324D96E0001000EBF
:1009D000F420DA6EAECFDFFF2E2A2E50800AD8A484
:1009E000F4EF04F0F6EF04F0FAEF04F0000E2E6ED0
:1009F000FAEF04F09E9A1200C294C296C298C29A6C
:100A0000C19AC198C150F00B0A09C16EC08EC05086
:100A1000C70B2809C06EC050F80B0609C06E925073
:100A20002F09926E96500109966EC28012000FC077
:100A300028F010C029F01FEF05F01FEF05F0295036
:100A4000800AF36E800EF35C010ED8B4285CD8B037
:100A50002CEF05F02EEF05F01FEF05F030EF05F05D
:100A600012000FC011F0030E1116113ABA501118EE
:100A7000CF0B1118BA6E0FC011F010C012F0123463
:100A8000123211321234123211321150BB6E120076
:100A90000FC011F0030E1116113ABD501118CF0BF3
:100AA0001118BD6E0FC011F010C012F012341232C6
:100AB00011321234123211321150BE6E12000F6E0A
:100AC0000F6665EF05F067EF05F06DEF05F0BA9082
:100AD000BA92BA94BA9673EF05F0BA50F00B0C09BB
:100AE000BA6E73EF05F012000F6E0F667AEF05F025
:100AF0007CEF05F082EF05F0BD90BD92BD94BD96F0
:100B000088EF05F0BD50F00B0C09BD6E88EF05F0C5
:100B1000120000EE60F0800EEE6AE806FDE100EEE5
:100B200024F00B0EEE6AE806FDE1000EF86E080EEA
:100B3000F76E00010AEF00F00F6E0FC0ADFFA1EFDE
:100B400005F0ACA2A6EF05F0A8EF05F0A1EF05F0C7
:100B5000AAEF05F01200080EAC6E900EAB6EF28E8E
:100B6000F28CD08E9E9A9D8AB886190EAF6EAC8A92
:100B700012004F0ECA6E4B0ECB6EF28EF28C9E920E
:100B80009D829F8212009550F00B956E8350F00B62
:0A0B9000836E95503009956E120037
:020000040030CA
:0E0000002002391EFF8581FF0FC00FE00F4068
:00000001FF
