:040000000CEF00F011
:10000800FACF02F0FBCF03F0E9CF04F01BED04F0C8
:10001800276E2450246E000E286E2450246E000E85
:10002800266E2450000E2A6E000E296E86EC05F00E
:100038007CEC05F06EEC05F0ADEC04F0000E326ED1
:10004800000E316E246E000E356E2450080E186EA8
:100058002E0E176E000E1A6E050E196E5DEC04F06A
:10006800246E010E106E24505FEC05F09494246EFB
:10007800010E106E245050EC05F0949200D083B815
:1000880001D001D02BD0276601D001D02CD0246E0E
:10009800010E276E2450262A294A2A2A29C024F02C
:1000A8002AC025F0241E251E244A252A2C0E242485
:1000B800106E010E2520116E14EC05F029C010F009
:1000C8002AC011F0FDEC04F026C024F00F0E24160F
:1000D8008350F00B2410836E06D005D0246E000EDA
:1000E800276E245000D083BA01D001D07AD0286678
:1000F80001D001D07BD0246E010E286E2450080E4A
:10010800186E120E176E000E1A6E0D0E196E5DEC3B
:1001180004F0246E050E126E245088EC04F013349B
:10012800133212321334133212321250166E90EC0C
:1001380005F0246E0A0E166E245090EC05F0080E99
:10014800186E200E176E000E1A6E0D0E196E5DECED
:1001580004F029C016F090EC05F0246E0A0E166E15
:10016800245090EC05F0080E186E000E176E000E65
:100178001A6E110E196E5DEC04F01ED00001600EAF
:100188003124D96E0001000E3220DA6EDF50166E6F
:1001980090EC05F0314A322A3250800A800F800EE6
:1001A800D8B4315CD8A001D001D006D0000E326E90
:1001B800000E316E01D000D03550246E256A3250C1
:1001C800251802E131502418D8A401D001D0D6D77F
:1001D80000D0246E0A0E166E245090EC05F006D05E
:1001E80005D0246E000E286E245000D083B801D0AC
:1001F80001D045D7246E050E126E245088EC04F009
:100208001334133212321334133212321250166E60
:0E02180090EC05F034D733D732D70CEF00F05E
:10080000554152542068617320726563656976654D
:1008100064004144432076616C7565206973200053
:1008200050574D2076616C756520697320004865CE
:100830006C6C6F0000000600EACF05F0E1CF06F017
:10084000E2CF07F0D9CF08F0DACF09F0F3CF0AF002
:10085000F4CF0BF0F6CF0CF0F7CF0DF0F8CF0EF091
:10086000F5CF0FF09EAA01D001D003D0E3EC04F045
:1008700000D09EA201D001D003D0C8EC04F000D07B
:100880000FC0F5FF0EC0F8FF0DC0F7FF0CC0F6FF5C
:100890000BC0F4FF0AC0F3FF09C0DAFF08C0D9FF9C
:1008A00007C0E2FF06C0E1FF05C0EAFF04C0E9FFA0
:1008B00003C0FBFF02C0FAFF1100000E1E6E000E07
:1008C0001D6E000E1E6E000E1D6E14D017C01BF0A4
:1008D00018C01CF01D501B261E501C221BC0F6FF0A
:1008E0001CC0F7FF0800F5CF16F090EC05F01D4A8C
:1008F0001E2A00D01E50800A1B6E19501D5C1A5013
:10090000800A1B58D8A001D001D0E0D700D0120037
:1009100012C014F0070E141614461446C2501418D0
:10092000C30B1418C26E000E116E000E106E3EEC5A
:1009300005F0C28200D0C2B201D001D0FCD700D0F5
:10094000C350C4CF14F0156A14C015F0146A141003
:10095000126E1550136E00D01200C294C296C29847
:10096000C29AC19AC198C150F00B0A09C16EC08EDB
:10097000C050C70B2809C06EC050F80B0609C06EE6
:1009800092502F09926E96500109966EC280120005
:10099000010E2B242B6E000E2C202C6E000E2D2011
:1009A0002D6E000E2E202E6E30502F10D8B401D098
:1009B00001D007D0FF0E2F242F6EFF0E3020306E97
:1009C00000D09E9212003550010D0001600EF324FC
:1009D000D96E0001000EF420DA6EAECFDFFF352AAB
:1009E0003550800AD8A401D001D005D0016E000E88
:1009F000356E015000D09E9A120010C012F0030E06
:100A00001216123ABA501218CF0B1218BA6E10C042
:100A100012F011C013F013341332123213341332A4
:100A200012321250BB6E120010C012F0030E1216DA
:100A3000123ABD501218CF0B1218BD6E10C012F032
:100A400011C013F013341332123213341332123232
:100A50001250BE6E120000EE60F0800EEE6AE806E4
:100A6000FDE100EE2BF00B0EEE6AE806FDE1000E54
:100A7000F86E080EF76E00010AEF00F010C02FF0BC
:100A800011C030F001D000D03050800A800F010E2C
:100A9000D8B42F5CD8B001D001D0F6D700D0120066
:100AA000106601D001D005D0BA90BA92BA94BA9625
:100AB00005D0BA50F00B0C09BA6E00D012001066C7
:100AC00001D001D005D0BD90BD92BD94BD9605D09A
:100AD000BD50F00B0C09BD6E00D01200080EAC6EBC
:100AE000900EAB6EF28EF28CD08E9E9A9D8AB88656
:100AF000190EAF6EAC8A12004F0ECA6E4B0ECB6E43
:100B0000F28EF28C9E929D829F8212009550F00B85
:100B1000956E8350F00B836E95503009956E1200E0
:100B200016C0ADFF00D0ACA201D001D0FCD700D0E0
:020B30001200B1
:020000040030CA
:0E0000002002391EFF8581FF0FC00FE00F4068
:00000001FF
